:03000000020003F8
:0C000300787FE4F6D8FD75810C02004AFD
:0400F200020B0000FD
:10008F00750809750956750A78850C82850B83E406
:10009F00F0A304F0850C82850B83A3A304F0850CD9
:1000AF0082850B83A3A3A304F0E50C2404F582E45B
:1000BF00350BF5837404F0E50C2405F582E4350B5C
:1000CF00F5837405F0E50C2406F582E4350BF58312
:1000DF007406F0E50C2407F582E4350BF5837407FD
:0300EF00F080FEA0
:10000F0002008FE493A3F8E493A34003F68001F278
:10001F0008DFF48029E493A3F85407240CC8C333F2
:10002F00C4540F4420C8834004F456800146F6DFC1
:10003F00E4800B01020408102040809000F2E47E5F
:10004F00019360BCA3FF543F30E509541FFEE493B6
:10005F00A360010ECF54C025E060A840B8E493A37D
:10006F00FAE493A3F8E493A3C8C582C8CAC583CAA8
:10007F00F0A3C8C582C8CAC583CADFE9DEE780BE60
:0100F6000009
:00000001FF
